{
  "_format": "hh-sol-artifact-1",
  "contractName": "BallotFactory",
  "sourceName": "contracts/BallotFactory.sol",
  "abi": [
    {
      "anonymous": false,
      "inputs": [
        {
          "indexed": true,
          "internalType": "address",
          "name": "ballotAddress",
          "type": "address"
        },
        {
          "indexed": false,
          "internalType": "string",
          "name": "description",
          "type": "string"
        },
        {
          "indexed": true,
          "internalType": "address",
          "name": "owner",
          "type": "address"
        },
        {
          "indexed": false,
          "internalType": "uint256",
          "name": "maxVotes",
          "type": "uint256"
        },
        {
          "indexed": false,
          "internalType": "bool",
          "name": "allowDelegation",
          "type": "bool"
        },
        {
          "indexed": false,
          "internalType": "uint256",
          "name": "proposalCount",
          "type": "uint256"
        }
      ],
      "name": "BallotCreated",
      "type": "event"
    },
    {
      "inputs": [
        {
          "internalType": "uint256",
          "name": "",
          "type": "uint256"
        }
      ],
      "name": "ballots",
      "outputs": [
        {
          "internalType": "address",
          "name": "ballotAddress",
          "type": "address"
        },
        {
          "internalType": "string",
          "name": "description",
          "type": "string"
        },
        {
          "internalType": "address",
          "name": "owner",
          "type": "address"
        },
        {
          "internalType": "uint256",
          "name": "maxVotes",
          "type": "uint256"
        },
        {
          "internalType": "bool",
          "name": "allowDelegation",
          "type": "bool"
        },
        {
          "internalType": "uint256",
          "name": "proposalCount",
          "type": "uint256"
        },
        {
          "internalType": "bool",
          "name": "isActive",
          "type": "bool"
        }
      ],
      "stateMutability": "view",
      "type": "function"
    },
    {
      "inputs": [
        {
          "internalType": "bytes32[]",
          "name": "proposalNames",
          "type": "bytes32[]"
        },
        {
          "internalType": "string",
          "name": "description",
          "type": "string"
        },
        {
          "internalType": "uint256",
          "name": "maxVotes",
          "type": "uint256"
        },
        {
          "internalType": "bool",
          "name": "allowDelegation",
          "type": "bool"
        }
      ],
      "name": "createBallot",
      "outputs": [
        {
          "internalType": "address",
          "name": "",
          "type": "address"
        }
      ],
      "stateMutability": "nonpayable",
      "type": "function"
    },
    {
      "inputs": [],
      "name": "getActiveBallots",
      "outputs": [
        {
          "components": [
            {
              "internalType": "address",
              "name": "ballotAddress",
              "type": "address"
            },
            {
              "internalType": "string",
              "name": "description",
              "type": "string"
            },
            {
              "internalType": "address",
              "name": "owner",
              "type": "address"
            },
            {
              "internalType": "uint256",
              "name": "maxVotes",
              "type": "uint256"
            },
            {
              "internalType": "bool",
              "name": "allowDelegation",
              "type": "bool"
            },
            {
              "internalType": "uint256",
              "name": "proposalCount",
              "type": "uint256"
            },
            {
              "internalType": "bool",
              "name": "isActive",
              "type": "bool"
            }
          ],
          "internalType": "struct BallotFactory.BallotInfo[]",
          "name": "",
          "type": "tuple[]"
        }
      ],
      "stateMutability": "view",
      "type": "function"
    },
    {
      "inputs": [],
      "name": "getAllBallots",
      "outputs": [
        {
          "components": [
            {
              "internalType": "address",
              "name": "ballotAddress",
              "type": "address"
            },
            {
              "internalType": "string",
              "name": "description",
              "type": "string"
            },
            {
              "internalType": "address",
              "name": "owner",
              "type": "address"
            },
            {
              "internalType": "uint256",
              "name": "maxVotes",
              "type": "uint256"
            },
            {
              "internalType": "bool",
              "name": "allowDelegation",
              "type": "bool"
            },
            {
              "internalType": "uint256",
              "name": "proposalCount",
              "type": "uint256"
            },
            {
              "internalType": "bool",
              "name": "isActive",
              "type": "bool"
            }
          ],
          "internalType": "struct BallotFactory.BallotInfo[]",
          "name": "",
          "type": "tuple[]"
        }
      ],
      "stateMutability": "view",
      "type": "function"
    },
    {
      "inputs": [
        {
          "internalType": "uint256",
          "name": "ballotIndex",
          "type": "uint256"
        }
      ],
      "name": "getBallotStatus",
      "outputs": [
        {
          "internalType": "bool",
          "name": "isActive",
          "type": "bool"
        },
        {
          "internalType": "uint256",
          "name": "totalVoters",
          "type": "uint256"
        },
        {
          "internalType": "uint256",
          "name": "votesCount",
          "type": "uint256"
        },
        {
          "internalType": "bool",
          "name": "votingOpen",
          "type": "bool"
        },
        {
          "internalType": "bool",
          "name": "allowDelegation",
          "type": "bool"
        },
        {
          "internalType": "uint256",
          "name": "maxVotes",
          "type": "uint256"
        }
      ],
      "stateMutability": "view",
      "type": "function"
    },
    {
      "inputs": [
        {
          "internalType": "address",
          "name": "user",
          "type": "address"
        }
      ],
      "name": "getUserBallots",
      "outputs": [
        {
          "components": [
            {
              "internalType": "address",
              "name": "ballotAddress",
              "type": "address"
            },
            {
              "internalType": "string",
              "name": "description",
              "type": "string"
            },
            {
              "internalType": "address",
              "name": "owner",
              "type": "address"
            },
            {
              "internalType": "uint256",
              "name": "maxVotes",
              "type": "uint256"
            },
            {
              "internalType": "bool",
              "name": "allowDelegation",
              "type": "bool"
            },
            {
              "internalType": "uint256",
              "name": "proposalCount",
              "type": "uint256"
            },
            {
              "internalType": "bool",
              "name": "isActive",
              "type": "bool"
            }
          ],
          "internalType": "struct BallotFactory.BallotInfo[]",
          "name": "",
          "type": "tuple[]"
        }
      ],
      "stateMutability": "view",
      "type": "function"
    },
    {
      "inputs": [
        {
          "internalType": "address",
          "name": "",
          "type": "address"
        },
        {
          "internalType": "uint256",
          "name": "",
          "type": "uint256"
        }
      ],
      "name": "userBallots",
      "outputs": [
        {
          "internalType": "address",
          "name": "ballotAddress",
          "type": "address"
        },
        {
          "internalType": "string",
          "name": "description",
          "type": "string"
        },
        {
          "internalType": "address",
          "name": "owner",
          "type": "address"
        },
        {
          "internalType": "uint256",
          "name": "maxVotes",
          "type": "uint256"
        },
        {
          "internalType": "bool",
          "name": "allowDelegation",
          "type": "bool"
        },
        {
          "internalType": "uint256",
          "name": "proposalCount",
          "type": "uint256"
        },
        {
          "internalType": "bool",
          "name": "isActive",
          "type": "bool"
        }
      ],
      "stateMutability": "view",
      "type": "function"
    }
  ],
  "bytecode": "0x6080604052348015600f57600080fd5b50614feb8061001f6000396000f3fe608060405234801561001057600080fd5b506004361061007d5760003560e01c8063795e24151161005b578063795e2415146101065780637ac53b2714610124578063cdd4a2d814610159578063eeee795d1461018f5761007d565b80630b8710e4146100825780635c632b38146100a05780635e0521fb146100d6575b600080fd5b61008a6101bf565b60405161009791906114ff565b60405180910390f35b6100ba60048036038101906100b59190611561565b6103a6565b6040516100cd9796959493929190611605565b60405180910390f35b6100f060048036038101906100eb91906116a7565b6104da565b6040516100fd91906114ff565b60405180910390f35b61010e610700565b60405161011b91906114ff565b60405180910390f35b61013e60048036038101906101399190611561565b610a02565b604051610150969594939291906116d4565b60405180910390f35b610173600480360381019061016e9190611735565b610ca8565b6040516101869796959493929190611605565b60405180910390f35b6101a960048036038101906101a491906119d4565b610de9565b6040516101b69190611a73565b60405180910390f35b60606000805480602002602001604051908101604052809291908181526020016000905b8282101561039d57838290600052602060002090600702016040518060e00160405290816000820160009054906101000a900473ffffffffffffffffffffffffffffffffffffffff1673ffffffffffffffffffffffffffffffffffffffff1673ffffffffffffffffffffffffffffffffffffffff16815260200160018201805461026c90611abd565b80601f016020809104026020016040519081016040528092919081815260200182805461029890611abd565b80156102e55780601f106102ba576101008083540402835291602001916102e5565b820191906000526020600020905b8154815290600101906020018083116102c857829003601f168201915b505050505081526020016002820160009054906101000a900473ffffffffffffffffffffffffffffffffffffffff1673ffffffffffffffffffffffffffffffffffffffff1673ffffffffffffffffffffffffffffffffffffffff168152602001600382015481526020016004820160009054906101000a900460ff16151515158152602001600582015481526020016006820160009054906101000a900460ff161515151581525050815260200190600101906101e3565b50505050905090565b600081815481106103b657600080fd5b90600052602060002090600702016000915090508060000160009054906101000a900473ffffffffffffffffffffffffffffffffffffffff16908060010180546103ff90611abd565b80601f016020809104026020016040519081016040528092919081815260200182805461042b90611abd565b80156104785780601f1061044d57610100808354040283529160200191610478565b820191906000526020600020905b81548152906001019060200180831161045b57829003601f168201915b5050505050908060020160009054906101000a900473ffffffffffffffffffffffffffffffffffffffff16908060030154908060040160009054906101000a900460ff16908060050154908060060160009054906101000a900460ff16905087565b6060600160008373ffffffffffffffffffffffffffffffffffffffff1673ffffffffffffffffffffffffffffffffffffffff168152602001908152602001600020805480602002602001604051908101604052809291908181526020016000905b828210156106f557838290600052602060002090600702016040518060e00160405290816000820160009054906101000a900473ffffffffffffffffffffffffffffffffffffffff1673ffffffffffffffffffffffffffffffffffffffff1673ffffffffffffffffffffffffffffffffffffffff1681526020016001820180546105c490611abd565b80601f01602080910402602001604051908101604052809291908181526020018280546105f090611abd565b801561063d5780601f106106125761010080835404028352916020019161063d565b820191906000526020600020905b81548152906001019060200180831161062057829003601f168201915b505050505081526020016002820160009054906101000a900473ffffffffffffffffffffffffffffffffffffffff1673ffffffffffffffffffffffffffffffffffffffff1673ffffffffffffffffffffffffffffffffffffffff168152602001600382015481526020016004820160009054906101000a900460ff16151515158152602001600582015481526020016006820160009054906101000a900460ff1615151515815250508152602001906001019061053b565b505050509050919050565b60606000805b600080549050811015610767576000818154811061072757610726611aee565b5b906000526020600020906007020160060160009054906101000a900460ff161561075a57818061075690611b4c565b9250505b8080600101915050610706565b5060008167ffffffffffffffff8111156107845761078361177a565b5b6040519080825280602002602001820160405280156107bd57816020015b6107aa611222565b8152602001906001900390816107a25790505b5090506000805b6000805490508110156109f857600081815481106107e5576107e4611aee565b5b906000526020600020906007020160060160009054906101000a900460ff16156109eb576000818154811061081d5761081c611aee565b5b90600052602060002090600702016040518060e00160405290816000820160009054906101000a900473ffffffffffffffffffffffffffffffffffffffff1673ffffffffffffffffffffffffffffffffffffffff1673ffffffffffffffffffffffffffffffffffffffff16815260200160018201805461089c90611abd565b80601f01602080910402602001604051908101604052809291908181526020018280546108c890611abd565b80156109155780601f106108ea57610100808354040283529160200191610915565b820191906000526020600020905b8154815290600101906020018083116108f857829003601f168201915b505050505081526020016002820160009054906101000a900473ffffffffffffffffffffffffffffffffffffffff1673ffffffffffffffffffffffffffffffffffffffff1673ffffffffffffffffffffffffffffffffffffffff168152602001600382015481526020016004820160009054906101000a900460ff16151515158152602001600582015481526020016006820160009054906101000a900460ff1615151515815250508383815181106109d1576109d0611aee565b5b602002602001018190525081806109e790611b4c565b9250505b80806001019150506107c4565b5081935050505090565b6000806000806000806000805490508710610a52576040517f08c379a0000000000000000000000000000000000000000000000000000000008152600401610a4990611be0565b60405180910390fd5b6000808881548110610a6757610a66611aee565b5b90600052602060002090600702016040518060e00160405290816000820160009054906101000a900473ffffffffffffffffffffffffffffffffffffffff1673ffffffffffffffffffffffffffffffffffffffff1673ffffffffffffffffffffffffffffffffffffffff168152602001600182018054610ae690611abd565b80601f0160208091040260200160405190810160405280929190818152602001828054610b1290611abd565b8015610b5f5780601f10610b3457610100808354040283529160200191610b5f565b820191906000526020600020905b815481529060010190602001808311610b4257829003601f168201915b505050505081526020016002820160009054906101000a900473ffffffffffffffffffffffffffffffffffffffff1673ffffffffffffffffffffffffffffffffffffffff1673ffffffffffffffffffffffffffffffffffffffff168152602001600382015481526020016004820160009054906101000a900460ff16151515158152602001600582015481526020016006820160009054906101000a900460ff16151515158152505090506000816000015190508073ffffffffffffffffffffffffffffffffffffffff1663a10cfae56040518163ffffffff1660e01b815260040160a060405180830381865afa158015610c5e573d6000803e3d6000fd5b505050506040513d601f19601f82011682018060405250810190610c829190611c2a565b809750819850829950839a50849b5050505050508160c001519750505091939550919395565b60016020528160005260406000208181548110610cc457600080fd5b9060005260206000209060070201600091509150508060000160009054906101000a900473ffffffffffffffffffffffffffffffffffffffff1690806001018054610d0e90611abd565b80601f0160208091040260200160405190810160405280929190818152602001828054610d3a90611abd565b8015610d875780601f10610d5c57610100808354040283529160200191610d87565b820191906000526020600020905b815481529060010190602001808311610d6a57829003601f168201915b5050505050908060020160009054906101000a900473ffffffffffffffffffffffffffffffffffffffff16908060030154908060040160009054906101000a900460ff16908060050154908060060160009054906101000a900460ff16905087565b600080855111610e2e576040517f08c379a0000000000000000000000000000000000000000000000000000000008152600401610e2590611d17565b60405180910390fd5b600585511115610e73576040517f08c379a0000000000000000000000000000000000000000000000000000000008152600401610e6a90611d83565b60405180910390fd5b600085848433604051610e859061128f565b610e929493929190611e61565b604051809103906000f080158015610eae573d6000803e3d6000fd5b509050600081905060006040518060e001604052808373ffffffffffffffffffffffffffffffffffffffff1681526020018881526020013373ffffffffffffffffffffffffffffffffffffffff168152602001878152602001861515815260200189518152602001600115158152509050600081908060018154018082558091505060019003906000526020600020906007020160009091909190915060008201518160000160006101000a81548173ffffffffffffffffffffffffffffffffffffffff021916908373ffffffffffffffffffffffffffffffffffffffff1602179055506020820151816001019081610fa79190612059565b5060408201518160020160006101000a81548173ffffffffffffffffffffffffffffffffffffffff021916908373ffffffffffffffffffffffffffffffffffffffff1602179055506060820151816003015560808201518160040160006101000a81548160ff02191690831515021790555060a0820151816005015560c08201518160060160006101000a81548160ff0219169083151502179055505050600160003373ffffffffffffffffffffffffffffffffffffffff1673ffffffffffffffffffffffffffffffffffffffff16815260200190815260200160002081908060018154018082558091505060019003906000526020600020906007020160009091909190915060008201518160000160006101000a81548173ffffffffffffffffffffffffffffffffffffffff021916908373ffffffffffffffffffffffffffffffffffffffff160217905550602082015181600101908161110a9190612059565b5060408201518160020160006101000a81548173ffffffffffffffffffffffffffffffffffffffff021916908373ffffffffffffffffffffffffffffffffffffffff1602179055506060820151816003015560808201518160040160006101000a81548160ff02191690831515021790555060a0820151816005015560c08201518160060160006101000a81548160ff02191690831515021790555050503373ffffffffffffffffffffffffffffffffffffffff168273ffffffffffffffffffffffffffffffffffffffff167f42d92d4a9df80e054de0590334218064aaf844138a0fee5b66596c321aa7ed4b8989898d5160405161120c949392919061212b565b60405180910390a3819350505050949350505050565b6040518060e00160405280600073ffffffffffffffffffffffffffffffffffffffff16815260200160608152602001600073ffffffffffffffffffffffffffffffffffffffff16815260200160008152602001600015158152602001600081526020016000151581525090565b612e3e8061217883390190565b600081519050919050565b600082825260208201905092915050565b6000819050602082019050919050565b600073ffffffffffffffffffffffffffffffffffffffff82169050919050565b60006112f3826112c8565b9050919050565b611303816112e8565b82525050565b600081519050919050565b600082825260208201905092915050565b60005b83811015611343578082015181840152602081019050611328565b60008484015250505050565b6000601f19601f8301169050919050565b600061136b82611309565b6113758185611314565b9350611385818560208601611325565b61138e8161134f565b840191505092915050565b6000819050919050565b6113ac81611399565b82525050565b60008115159050919050565b6113c7816113b2565b82525050565b600060e0830160008301516113e560008601826112fa565b50602083015184820360208601526113fd8282611360565b915050604083015161141260408601826112fa565b50606083015161142560608601826113a3565b50608083015161143860808601826113be565b5060a083015161144b60a08601826113a3565b5060c083015161145e60c08601826113be565b508091505092915050565b600061147583836113cd565b905092915050565b6000602082019050919050565b60006114958261129c565b61149f81856112a7565b9350836020820285016114b1856112b8565b8060005b858110156114ed57848403895281516114ce8582611469565b94506114d98361147d565b925060208a019950506001810190506114b5565b50829750879550505050505092915050565b60006020820190508181036000830152611519818461148a565b905092915050565b6000604051905090565b600080fd5b600080fd5b61153e81611399565b811461154957600080fd5b50565b60008135905061155b81611535565b92915050565b6000602082840312156115775761157661152b565b5b60006115858482850161154c565b91505092915050565b611597816112e8565b82525050565b600082825260208201905092915050565b60006115b982611309565b6115c3818561159d565b93506115d3818560208601611325565b6115dc8161134f565b840191505092915050565b6115f081611399565b82525050565b6115ff816113b2565b82525050565b600060e08201905061161a600083018a61158e565b818103602083015261162c81896115ae565b905061163b604083018861158e565b61164860608301876115e7565b61165560808301866115f6565b61166260a08301856115e7565b61166f60c08301846115f6565b98975050505050505050565b611684816112e8565b811461168f57600080fd5b50565b6000813590506116a18161167b565b92915050565b6000602082840312156116bd576116bc61152b565b5b60006116cb84828501611692565b91505092915050565b600060c0820190506116e960008301896115f6565b6116f660208301886115e7565b61170360408301876115e7565b61171060608301866115f6565b61171d60808301856115f6565b61172a60a08301846115e7565b979650505050505050565b6000806040838503121561174c5761174b61152b565b5b600061175a85828601611692565b925050602061176b8582860161154c565b9150509250929050565b600080fd5b7f4e487b7100000000000000000000000000000000000000000000000000000000600052604160045260246000fd5b6117b28261134f565b810181811067ffffffffffffffff821117156117d1576117d061177a565b5b80604052505050565b60006117e4611521565b90506117f082826117a9565b919050565b600067ffffffffffffffff8211156118105761180f61177a565b5b602082029050602081019050919050565b600080fd5b6000819050919050565b61183981611826565b811461184457600080fd5b50565b60008135905061185681611830565b92915050565b600061186f61186a846117f5565b6117da565b9050808382526020820190506020840283018581111561189257611891611821565b5b835b818110156118bb57806118a78882611847565b845260208401935050602081019050611894565b5050509392505050565b600082601f8301126118da576118d9611775565b5b81356118ea84826020860161185c565b91505092915050565b600080fd5b600067ffffffffffffffff8211156119135761191261177a565b5b61191c8261134f565b9050602081019050919050565b82818337600083830152505050565b600061194b611946846118f8565b6117da565b905082815260208101848484011115611967576119666118f3565b5b611972848285611929565b509392505050565b600082601f83011261198f5761198e611775565b5b813561199f848260208601611938565b91505092915050565b6119b1816113b2565b81146119bc57600080fd5b50565b6000813590506119ce816119a8565b92915050565b600080600080608085870312156119ee576119ed61152b565b5b600085013567ffffffffffffffff811115611a0c57611a0b611530565b5b611a18878288016118c5565b945050602085013567ffffffffffffffff811115611a3957611a38611530565b5b611a458782880161197a565b9350506040611a568782880161154c565b9250506060611a67878288016119bf565b91505092959194509250565b6000602082019050611a88600083018461158e565b92915050565b7f4e487b7100000000000000000000000000000000000000000000000000000000600052602260045260246000fd5b60006002820490506001821680611ad557607f821691505b602082108103611ae857611ae7611a8e565b5b50919050565b7f4e487b7100000000000000000000000000000000000000000000000000000000600052603260045260246000fd5b7f4e487b7100000000000000000000000000000000000000000000000000000000600052601160045260246000fd5b6000611b5782611399565b91507fffffffffffffffffffffffffffffffffffffffffffffffffffffffffffffffff8203611b8957611b88611b1d565b5b600182019050919050565b7f496e76616c69642062616c6c6f7420696e646578000000000000000000000000600082015250565b6000611bca60148361159d565b9150611bd582611b94565b602082019050919050565b60006020820190508181036000830152611bf981611bbd565b9050919050565b600081519050611c0f81611535565b92915050565b600081519050611c24816119a8565b92915050565b600080600080600060a08688031215611c4657611c4561152b565b5b6000611c5488828901611c00565b9550506020611c6588828901611c00565b9450506040611c7688828901611c15565b9350506060611c8788828901611c15565b9250506080611c9888828901611c00565b9150509295509295909350565b7f4d7573742070726f76696465206174206c65617374206f6e652070726f706f7360008201527f616c000000000000000000000000000000000000000000000000000000000000602082015250565b6000611d0160228361159d565b9150611d0c82611ca5565b604082019050919050565b60006020820190508181036000830152611d3081611cf4565b9050919050565b7f4d6178696d756d20352070726f706f73616c7320616c6c6f7765640000000000600082015250565b6000611d6d601b8361159d565b9150611d7882611d37565b602082019050919050565b60006020820190508181036000830152611d9c81611d60565b9050919050565b600081519050919050565b600082825260208201905092915050565b6000819050602082019050919050565b611dd881611826565b82525050565b6000611dea8383611dcf565b60208301905092915050565b6000602082019050919050565b6000611e0e82611da3565b611e188185611dae565b9350611e2383611dbf565b8060005b83811015611e54578151611e3b8882611dde565b9750611e4683611df6565b925050600181019050611e27565b5085935050505092915050565b60006080820190508181036000830152611e7b8187611e03565b9050611e8a60208301866115e7565b611e9760408301856115f6565b611ea4606083018461158e565b95945050505050565b60008190508160005260206000209050919050565b60006020601f8301049050919050565b600082821b905092915050565b600060088302611f0f7fffffffffffffffffffffffffffffffffffffffffffffffffffffffffffffffff82611ed2565b611f198683611ed2565b95508019841693508086168417925050509392505050565b6000819050919050565b6000611f56611f51611f4c84611399565b611f31565b611399565b9050919050565b6000819050919050565b611f7083611f3b565b611f84611f7c82611f5d565b848454611edf565b825550505050565b600090565b611f99611f8c565b611fa4818484611f67565b505050565b5b81811015611fc857611fbd600082611f91565b600181019050611faa565b5050565b601f82111561200d57611fde81611ead565b611fe784611ec2565b81016020851015611ff6578190505b61200a61200285611ec2565b830182611fa9565b50505b505050565b600082821c905092915050565b600061203060001984600802612012565b1980831691505092915050565b6000612049838361201f565b9150826002028217905092915050565b61206282611309565b67ffffffffffffffff81111561207b5761207a61177a565b5b6120858254611abd565b612090828285611fcc565b600060209050601f8311600181146120c357600084156120b1578287015190505b6120bb858261203d565b865550612123565b601f1984166120d186611ead565b60005b828110156120f9578489015182556001820191506020850194506020810190506120d4565b868310156121165784890151612112601f89168261201f565b8355505b6001600288020188555050505b505050505050565b6000608082019050818103600083015261214581876115ae565b905061215460208301866115e7565b61216160408301856115f6565b61216e60608301846115e7565b9594505050505056fe608060405234801561001057600080fd5b50604051612e3e380380612e3e83398181016040528101906100329190610493565b6000845111610076576040517f08c379a000000000000000000000000000000000000000000000000000000000815260040161006d90610573565b60405180910390fd5b6005845111156100bb576040517f08c379a00000000000000000000000000000000000000000000000000000000081526004016100b2906105df565b60405180910390fd5b80600260006101000a81548173ffffffffffffffffffffffffffffffffffffffff021916908373ffffffffffffffffffffffffffffffffffffffff1602179055506001600360008373ffffffffffffffffffffffffffffffffffffffff1673ffffffffffffffffffffffffffffffffffffffff16815260200190815260200160002060006101000a81548160ff0219169083151502179055506001600660006101000a81548160ff02191690831515021790555081600660016101000a81548160ff0219169083151502179055508260078190555060005b845181101561021a57600060405180604001604052808784815181106101bc576101bb6105ff565b5b6020026020010151815260200160008152509080600181540180825580915050600190039060005260206000209060020201600090919091909150600082015181600001556020820151816001015550508080600101915050610193565b505050505061062e565b6000604051905090565b600080fd5b600080fd5b600080fd5b6000601f19601f8301169050919050565b7f4e487b7100000000000000000000000000000000000000000000000000000000600052604160045260246000fd5b6102868261023d565b810181811067ffffffffffffffff821117156102a5576102a461024e565b5b80604052505050565b60006102b8610224565b90506102c4828261027d565b919050565b600067ffffffffffffffff8211156102e4576102e361024e565b5b602082029050602081019050919050565b600080fd5b6000819050919050565b61030d816102fa565b811461031857600080fd5b50565b60008151905061032a81610304565b92915050565b600061034361033e846102c9565b6102ae565b90508083825260208201905060208402830185811115610366576103656102f5565b5b835b8181101561038f578061037b888261031b565b845260208401935050602081019050610368565b5050509392505050565b600082601f8301126103ae576103ad610238565b5b81516103be848260208601610330565b91505092915050565b6000819050919050565b6103da816103c7565b81146103e557600080fd5b50565b6000815190506103f7816103d1565b92915050565b60008115159050919050565b610412816103fd565b811461041d57600080fd5b50565b60008151905061042f81610409565b92915050565b600073ffffffffffffffffffffffffffffffffffffffff82169050919050565b600061046082610435565b9050919050565b61047081610455565b811461047b57600080fd5b50565b60008151905061048d81610467565b92915050565b600080600080608085870312156104ad576104ac61022e565b5b600085015167ffffffffffffffff8111156104cb576104ca610233565b5b6104d787828801610399565b94505060206104e8878288016103e8565b93505060406104f987828801610420565b925050606061050a8782880161047e565b91505092959194509250565b600082825260208201905092915050565b7f4d7573742068617665206174206c65617374206f6e652070726f706f73616c00600082015250565b600061055d601f83610516565b915061056882610527565b602082019050919050565b6000602082019050818103600083015261058c81610550565b9050919050565b7f4d6178696d756d20352070726f706f73616c7320616c6c6f7765640000000000600082015250565b60006105c9601b83610516565b91506105d482610593565b602082019050919050565b600060208201905081810360008301526105f8816105bc565b9050919050565b7f4e487b7100000000000000000000000000000000000000000000000000000000600052603260045260246000fd5b6128018061063d6000396000f3fe608060405234801561001057600080fd5b50600436106101375760003560e01c80638778b27d116100b8578063bddf1ce91161007c578063bddf1ce914610347578063bfd41f3b14610363578063c08cc02d1461037f578063cf68fb251461039d578063d330715e146103bb578063e2ba53f0146103d757610137565b80638778b27d146102975780638da5cb5b146102b5578063a10cfae5146102d3578063a3ec138d146102f5578063a95824b41461032957610137565b80635c19a95c116100ff5780635c19a95c146102055780635f5300ff14610221578063609ff1bd1461023f578063704802751461025d578063777c3acf1461027957610137565b80630121b93f1461013c578063013cf08b146101585780631785f53c1461018957806324d7806c146101a5578063429b62e5146101d5575b600080fd5b61015660048036038101906101519190611c5e565b6103f5565b005b610172600480360381019061016d9190611c5e565b610732565b604051610180929190611cb3565b60405180910390f35b6101a3600480360381019061019e9190611d3a565b610766565b005b6101bf60048036038101906101ba9190611d3a565b6109b0565b6040516101cc9190611d82565b60405180910390f35b6101ef60048036038101906101ea9190611d3a565b610a5e565b6040516101fc9190611d82565b60405180910390f35b61021f600480360381019061021a9190611d3a565b610a7e565b005b61022961119b565b6040516102369190611d9d565b60405180910390f35b6102476111a1565b6040516102549190611d9d565b60405180910390f35b61027760048036038101906102729190611d3a565b611223565b005b6102816113de565b60405161028e9190611d9d565b60405180910390f35b61029f6113e4565b6040516102ac9190611d9d565b60405180910390f35b6102bd6113ea565b6040516102ca9190611dc7565b60405180910390f35b6102db611410565b6040516102ec959493929190611de2565b60405180910390f35b61030f600480360381019061030a9190611d3a565b611452565b604051610320959493929190611e35565b60405180910390f35b6103316114c2565b60405161033e9190611d82565b60405180910390f35b610361600480360381019061035c9190611d3a565b6114d5565b005b61037d60048036038101906103789190611eb4565b61178e565b005b6103876118c6565b6040516103949190611d9d565b60405180910390f35b6103a56118d2565b6040516103b29190611d82565b60405180910390f35b6103d560048036038101906103d09190611f46565b6118e5565b005b6103df611beb565b6040516103ec9190611f93565b60405180910390f35b600660009054906101000a900460ff16610444576040517f08c379a000000000000000000000000000000000000000000000000000000000815260040161043b9061200b565b60405180910390fd5b600160003373ffffffffffffffffffffffffffffffffffffffff1673ffffffffffffffffffffffffffffffffffffffff16815260200190815260200160002060000160019054906101000a900460ff166104d3576040517f08c379a00000000000000000000000000000000000000000000000000000000081526004016104ca90612077565b60405180910390fd5b600160003373ffffffffffffffffffffffffffffffffffffffff1673ffffffffffffffffffffffffffffffffffffffff16815260200190815260200160002060000160009054906101000a900460ff1615610563576040517f08c379a000000000000000000000000000000000000000000000000000000000815260040161055a906120e3565b60405180910390fd5b60008054905081106105aa576040517f08c379a00000000000000000000000000000000000000000000000000000000081526004016105a19061214f565b60405180910390fd5b60018060003373ffffffffffffffffffffffffffffffffffffffff1673ffffffffffffffffffffffffffffffffffffffff16815260200190815260200160002060000160006101000a81548160ff02191690831515021790555080600160003373ffffffffffffffffffffffffffffffffffffffff1673ffffffffffffffffffffffffffffffffffffffff16815260200190815260200160002060010181905550600160003373ffffffffffffffffffffffffffffffffffffffff1673ffffffffffffffffffffffffffffffffffffffff16815260200190815260200160002060030154600082815481106106a2576106a161216f565b5b906000526020600020906002020160010160008282546106c291906121cd565b92505081905550600560008154809291906106dc90612201565b91905055503373ffffffffffffffffffffffffffffffffffffffff167fa36cc2bebb74db33e9f88110a07ef56e1b31b24b4c4f51b54b1664266e29f45b826040516107279190611d9d565b60405180910390a250565b6000818154811061074257600080fd5b90600052602060002090600202016000915090508060000154908060010154905082565b600260009054906101000a900473ffffffffffffffffffffffffffffffffffffffff1673ffffffffffffffffffffffffffffffffffffffff163373ffffffffffffffffffffffffffffffffffffffff16146107f6576040517f08c379a00000000000000000000000000000000000000000000000000000000081526004016107ed90612295565b60405180910390fd5b600260009054906101000a900473ffffffffffffffffffffffffffffffffffffffff1673ffffffffffffffffffffffffffffffffffffffff168173ffffffffffffffffffffffffffffffffffffffff1603610886576040517f08c379a000000000000000000000000000000000000000000000000000000000815260040161087d90612327565b60405180910390fd5b600360008273ffffffffffffffffffffffffffffffffffffffff1673ffffffffffffffffffffffffffffffffffffffff16815260200190815260200160002060009054906101000a900460ff16610912576040517f08c379a000000000000000000000000000000000000000000000000000000000815260040161090990612393565b60405180910390fd5b6000600360008373ffffffffffffffffffffffffffffffffffffffff1673ffffffffffffffffffffffffffffffffffffffff16815260200190815260200160002060006101000a81548160ff0219169083151502179055508073ffffffffffffffffffffffffffffffffffffffff167fa3b62bc36326052d97ea62d63c3d60308ed4c3ea8ac079dd8499f1e9c4f80c0f60405160405180910390a250565b6000600360008373ffffffffffffffffffffffffffffffffffffffff1673ffffffffffffffffffffffffffffffffffffffff16815260200190815260200160002060009054906101000a900460ff1680610a575750600260009054906101000a900473ffffffffffffffffffffffffffffffffffffffff1673ffffffffffffffffffffffffffffffffffffffff168273ffffffffffffffffffffffffffffffffffffffff16145b9050919050565b60036020528060005260406000206000915054906101000a900460ff1681565b600660009054906101000a900460ff16610acd576040517f08c379a0000000000000000000000000000000000000000000000000000000008152600401610ac49061200b565b60405180910390fd5b600660019054906101000a900460ff16610b1c576040517f08c379a0000000000000000000000000000000000000000000000000000000008152600401610b1390612425565b60405180910390fd5b600160003373ffffffffffffffffffffffffffffffffffffffff1673ffffffffffffffffffffffffffffffffffffffff16815260200190815260200160002060000160019054906101000a900460ff16610bab576040517f08c379a0000000000000000000000000000000000000000000000000000000008152600401610ba290612077565b60405180910390fd5b600160003373ffffffffffffffffffffffffffffffffffffffff1673ffffffffffffffffffffffffffffffffffffffff16815260200190815260200160002060000160009054906101000a900460ff1615610c3b576040517f08c379a0000000000000000000000000000000000000000000000000000000008152600401610c32906120e3565b60405180910390fd5b3373ffffffffffffffffffffffffffffffffffffffff168173ffffffffffffffffffffffffffffffffffffffff1603610ca9576040517f08c379a0000000000000000000000000000000000000000000000000000000008152600401610ca090612491565b60405180910390fd5b600160008273ffffffffffffffffffffffffffffffffffffffff1673ffffffffffffffffffffffffffffffffffffffff16815260200190815260200160002060000160019054906101000a900460ff16610d38576040517f08c379a0000000000000000000000000000000000000000000000000000000008152600401610d2f906124fd565b60405180910390fd5b60008190505b600073ffffffffffffffffffffffffffffffffffffffff16600160008373ffffffffffffffffffffffffffffffffffffffff1673ffffffffffffffffffffffffffffffffffffffff16815260200190815260200160002060020160009054906101000a900473ffffffffffffffffffffffffffffffffffffffff1673ffffffffffffffffffffffffffffffffffffffff1614610eac57600160008273ffffffffffffffffffffffffffffffffffffffff1673ffffffffffffffffffffffffffffffffffffffff16815260200190815260200160002060020160009054906101000a900473ffffffffffffffffffffffffffffffffffffffff1690503373ffffffffffffffffffffffffffffffffffffffff168173ffffffffffffffffffffffffffffffffffffffff1603610ea7576040517f08c379a0000000000000000000000000000000000000000000000000000000008152600401610e9e90612569565b60405180910390fd5b610d3e565b80600160003373ffffffffffffffffffffffffffffffffffffffff1673ffffffffffffffffffffffffffffffffffffffff16815260200190815260200160002060020160006101000a81548173ffffffffffffffffffffffffffffffffffffffff021916908373ffffffffffffffffffffffffffffffffffffffff16021790555060018060003373ffffffffffffffffffffffffffffffffffffffff1673ffffffffffffffffffffffffffffffffffffffff16815260200190815260200160002060000160006101000a81548160ff021916908315150217905550600160008273ffffffffffffffffffffffffffffffffffffffff1673ffffffffffffffffffffffffffffffffffffffff16815260200190815260200160002060000160009054906101000a900460ff16156110a157600160003373ffffffffffffffffffffffffffffffffffffffff1673ffffffffffffffffffffffffffffffffffffffff168152602001908152602001600020600301546000600160008473ffffffffffffffffffffffffffffffffffffffff1673ffffffffffffffffffffffffffffffffffffffff16815260200190815260200160002060010154815481106110755761107461216f565b5b9060005260206000209060020201600101600082825461109591906121cd565b9250508190555061113d565b600160003373ffffffffffffffffffffffffffffffffffffffff1673ffffffffffffffffffffffffffffffffffffffff16815260200190815260200160002060030154600160008373ffffffffffffffffffffffffffffffffffffffff1673ffffffffffffffffffffffffffffffffffffffff168152602001908152602001600020600301600082825461113591906121cd565b925050819055505b8073ffffffffffffffffffffffffffffffffffffffff163373ffffffffffffffffffffffffffffffffffffffff167f63865a234f7fdfbbb95e275562773a2bb9e4bcdde12e942e55853115a43842bf60405160405180910390a35050565b60045481565b6000806000905060005b60008054905081101561121e5781600082815481106111cd576111cc61216f565b5b906000526020600020906002020160010154111561121157600081815481106111f9576111f861216f565b5b90600052602060002090600202016001015491508092505b80806001019150506111ab565b505090565b600260009054906101000a900473ffffffffffffffffffffffffffffffffffffffff1673ffffffffffffffffffffffffffffffffffffffff163373ffffffffffffffffffffffffffffffffffffffff16146112b3576040517f08c379a00000000000000000000000000000000000000000000000000000000081526004016112aa906125d5565b60405180910390fd5b600360008273ffffffffffffffffffffffffffffffffffffffff1673ffffffffffffffffffffffffffffffffffffffff16815260200190815260200160002060009054906101000a900460ff1615611340576040517f08c379a000000000000000000000000000000000000000000000000000000000815260040161133790612641565b60405180910390fd5b6001600360008373ffffffffffffffffffffffffffffffffffffffff1673ffffffffffffffffffffffffffffffffffffffff16815260200190815260200160002060006101000a81548160ff0219169083151502179055508073ffffffffffffffffffffffffffffffffffffffff167f44d6d25963f097ad14f29f06854a01f575648a1ef82f30e562ccd3889717e33960405160405180910390a250565b60075481565b60055481565b600260009054906101000a900473ffffffffffffffffffffffffffffffffffffffff1681565b6000806000806000600454600554600660009054906101000a900460ff16600660019054906101000a900460ff16600754945094509450945094509091929394565b60016020528060005260406000206000915090508060000160009054906101000a900460ff16908060000160019054906101000a900460ff16908060010154908060020160009054906101000a900473ffffffffffffffffffffffffffffffffffffffff16908060030154905085565b600660009054906101000a900460ff1681565b600360003373ffffffffffffffffffffffffffffffffffffffff1673ffffffffffffffffffffffffffffffffffffffff16815260200190815260200160002060009054906101000a900460ff168061157a5750600260009054906101000a900473ffffffffffffffffffffffffffffffffffffffff1673ffffffffffffffffffffffffffffffffffffffff163373ffffffffffffffffffffffffffffffffffffffff16145b6115b9576040517f08c379a00000000000000000000000000000000000000000000000000000000081526004016115b0906126d3565b60405180910390fd5b600160008273ffffffffffffffffffffffffffffffffffffffff1673ffffffffffffffffffffffffffffffffffffffff16815260200190815260200160002060000160019054906101000a900460ff1615611649576040517f08c379a00000000000000000000000000000000000000000000000000000000081526004016116409061273f565b60405180910390fd5b6007546004541061168f576040517f08c379a0000000000000000000000000000000000000000000000000000000008152600401611686906127ab565b60405180910390fd5b60018060008373ffffffffffffffffffffffffffffffffffffffff1673ffffffffffffffffffffffffffffffffffffffff16815260200190815260200160002060000160016101000a81548160ff02191690831515021790555060018060008373ffffffffffffffffffffffffffffffffffffffff1673ffffffffffffffffffffffffffffffffffffffff168152602001908152602001600020600301819055506004600081548092919061174390612201565b91905055508073ffffffffffffffffffffffffffffffffffffffff167f5cb979827581f5a2d6accf830511f42bc79705dde54d001643bb14fea7f75d5860405160405180910390a250565b600360003373ffffffffffffffffffffffffffffffffffffffff1673ffffffffffffffffffffffffffffffffffffffff16815260200190815260200160002060009054906101000a900460ff16806118335750600260009054906101000a900473ffffffffffffffffffffffffffffffffffffffff1673ffffffffffffffffffffffffffffffffffffffff163373ffffffffffffffffffffffffffffffffffffffff16145b611872576040517f08c379a0000000000000000000000000000000000000000000000000000000008152600401611869906126d3565b60405180910390fd5b80600660006101000a81548160ff0219169083151502179055507f4f368b73aecef9e323a0e143f8b129ff39e553cfb26c2cc6ac111a016c0ea4e7816040516118bb9190611d82565b60405180910390a150565b60008080549050905090565b600660019054906101000a900460ff1681565b600360003373ffffffffffffffffffffffffffffffffffffffff1673ffffffffffffffffffffffffffffffffffffffff16815260200190815260200160002060009054906101000a900460ff168061198a5750600260009054906101000a900473ffffffffffffffffffffffffffffffffffffffff1673ffffffffffffffffffffffffffffffffffffffff163373ffffffffffffffffffffffffffffffffffffffff16145b6119c9576040517f08c379a00000000000000000000000000000000000000000000000000000000081526004016119c0906126d3565b60405180910390fd5b60005b82829050811080156119e15750600754600454105b15611be657600160008484848181106119fd576119fc61216f565b5b9050602002016020810190611a129190611d3a565b73ffffffffffffffffffffffffffffffffffffffff1673ffffffffffffffffffffffffffffffffffffffff16815260200190815260200160002060000160019054906101000a900460ff16611bd3576001806000858585818110611a7957611a7861216f565b5b9050602002016020810190611a8e9190611d3a565b73ffffffffffffffffffffffffffffffffffffffff1673ffffffffffffffffffffffffffffffffffffffff16815260200190815260200160002060000160016101000a81548160ff0219169083151502179055506001806000858585818110611afa57611af961216f565b5b9050602002016020810190611b0f9190611d3a565b73ffffffffffffffffffffffffffffffffffffffff1673ffffffffffffffffffffffffffffffffffffffff1681526020019081526020016000206003018190555060046000815480929190611b6390612201565b9190505550828282818110611b7b57611b7a61216f565b5b9050602002016020810190611b909190611d3a565b73ffffffffffffffffffffffffffffffffffffffff167f5cb979827581f5a2d6accf830511f42bc79705dde54d001643bb14fea7f75d5860405160405180910390a25b8080611bde90612201565b9150506119cc565b505050565b600080611bf66111a1565b81548110611c0757611c0661216f565b5b906000526020600020906002020160000154905090565b600080fd5b600080fd5b6000819050919050565b611c3b81611c28565b8114611c4657600080fd5b50565b600081359050611c5881611c32565b92915050565b600060208284031215611c7457611c73611c1e565b5b6000611c8284828501611c49565b91505092915050565b6000819050919050565b611c9e81611c8b565b82525050565b611cad81611c28565b82525050565b6000604082019050611cc86000830185611c95565b611cd56020830184611ca4565b9392505050565b600073ffffffffffffffffffffffffffffffffffffffff82169050919050565b6000611d0782611cdc565b9050919050565b611d1781611cfc565b8114611d2257600080fd5b50565b600081359050611d3481611d0e565b92915050565b600060208284031215611d5057611d4f611c1e565b5b6000611d5e84828501611d25565b91505092915050565b60008115159050919050565b611d7c81611d67565b82525050565b6000602082019050611d976000830184611d73565b92915050565b6000602082019050611db26000830184611ca4565b92915050565b611dc181611cfc565b82525050565b6000602082019050611ddc6000830184611db8565b92915050565b600060a082019050611df76000830188611ca4565b611e046020830187611ca4565b611e116040830186611d73565b611e1e6060830185611d73565b611e2b6080830184611ca4565b9695505050505050565b600060a082019050611e4a6000830188611d73565b611e576020830187611d73565b611e646040830186611ca4565b611e716060830185611db8565b611e7e6080830184611ca4565b9695505050505050565b611e9181611d67565b8114611e9c57600080fd5b50565b600081359050611eae81611e88565b92915050565b600060208284031215611eca57611ec9611c1e565b5b6000611ed884828501611e9f565b91505092915050565b600080fd5b600080fd5b600080fd5b60008083601f840112611f0657611f05611ee1565b5b8235905067ffffffffffffffff811115611f2357611f22611ee6565b5b602083019150836020820283011115611f3f57611f3e611eeb565b5b9250929050565b60008060208385031215611f5d57611f5c611c1e565b5b600083013567ffffffffffffffff811115611f7b57611f7a611c23565b5b611f8785828601611ef0565b92509250509250929050565b6000602082019050611fa86000830184611c95565b92915050565b600082825260208201905092915050565b7f566f74696e67206973206e6f74206f70656e0000000000000000000000000000600082015250565b6000611ff5601283611fae565b915061200082611fbf565b602082019050919050565b6000602082019050818103600083015261202481611fe8565b9050919050565b7f4e6f742077686974656c697374656420746f20766f7465000000000000000000600082015250565b6000612061601783611fae565b915061206c8261202b565b602082019050919050565b6000602082019050818103600083015261209081612054565b9050919050565b7f416c726561647920766f74656400000000000000000000000000000000000000600082015250565b60006120cd600d83611fae565b91506120d882612097565b602082019050919050565b600060208201905081810360008301526120fc816120c0565b9050919050565b7f496e76616c69642070726f706f73616c00000000000000000000000000000000600082015250565b6000612139601083611fae565b915061214482612103565b602082019050919050565b600060208201905081810360008301526121688161212c565b9050919050565b7f4e487b7100000000000000000000000000000000000000000000000000000000600052603260045260246000fd5b7f4e487b7100000000000000000000000000000000000000000000000000000000600052601160045260246000fd5b60006121d882611c28565b91506121e383611c28565b92508282019050808211156121fb576121fa61219e565b5b92915050565b600061220c82611c28565b91507fffffffffffffffffffffffffffffffffffffffffffffffffffffffffffffffff820361223e5761223d61219e565b5b600182019050919050565b7f4f6e6c79206f776e65722063616e2072656d6f76652061646d696e7300000000600082015250565b600061227f601c83611fae565b915061228a82612249565b602082019050919050565b600060208201905081810360008301526122ae81612272565b9050919050565b7f43616e6e6f742072656d6f7665206f776e65722066726f6d2061646d696e207260008201527f6f6c650000000000000000000000000000000000000000000000000000000000602082015250565b6000612311602383611fae565b915061231c826122b5565b604082019050919050565b6000602082019050818103600083015261234081612304565b9050919050565b7f41646472657373206973206e6f7420616e2061646d696e000000000000000000600082015250565b600061237d601783611fae565b915061238882612347565b602082019050919050565b600060208201905081810360008301526123ac81612370565b9050919050565b7f44656c65676174696f6e206e6f7420616c6c6f77656420696e2074686973206260008201527f616c6c6f74000000000000000000000000000000000000000000000000000000602082015250565b600061240f602583611fae565b915061241a826123b3565b604082019050919050565b6000602082019050818103600083015261243e81612402565b9050919050565b7f43616e6e6f742064656c656761746520746f20796f757273656c660000000000600082015250565b600061247b601b83611fae565b915061248682612445565b602082019050919050565b600060208201905081810360008301526124aa8161246e565b9050919050565b7f44656c6567617465206e6f742077686974656c69737465640000000000000000600082015250565b60006124e7601883611fae565b91506124f2826124b1565b602082019050919050565b60006020820190508181036000830152612516816124da565b9050919050565b7f4c6f6f7020696e2064656c65676174696f6e2064657465637465640000000000600082015250565b6000612553601b83611fae565b915061255e8261251d565b602082019050919050565b6000602082019050818103600083015261258281612546565b9050919050565b7f4f6e6c79206f776e65722063616e206164642061646d696e7300000000000000600082015250565b60006125bf601983611fae565b91506125ca82612589565b602082019050919050565b600060208201905081810360008301526125ee816125b2565b9050919050565b7f4164647265737320697320616c726561647920616e2061646d696e0000000000600082015250565b600061262b601b83611fae565b9150612636826125f5565b602082019050919050565b6000602082019050818103600083015261265a8161261e565b9050919050565b7f4f6e6c792061646d696e2063616e2063616c6c20746869732066756e6374696f60008201527f6e00000000000000000000000000000000000000000000000000000000000000602082015250565b60006126bd602183611fae565b91506126c882612661565b604082019050919050565b600060208201905081810360008301526126ec816126b0565b9050919050565b7f566f74657220616c72656164792077686974656c697374656400000000000000600082015250565b6000612729601983611fae565b9150612734826126f3565b602082019050919050565b600060208201905081810360008301526127588161271c565b9050919050565b7f4d6178696d756d206e756d626572206f6620766f746572732072656163686564600082015250565b6000612795602083611fae565b91506127a08261275f565b602082019050919050565b600060208201905081810360008301526127c481612788565b905091905056fea264697066735822122020c972d4d55b2d921828996846163eab8547ce13c4b995c73d3e7b8f33bca4d964736f6c634300081c0033a26469706673582212209a41747942cc8595d22c0703f067215a3dbd4c89f8ad1ba956eab75d345467f564736f6c634300081c0033",
  "linkReferences": {},
  "deployedLinkReferences": {}
}