{
  "_format": "hh-sol-artifact-1",
  "contractName": "Ballot",
  "sourceName": "contracts/Ballot.sol",
  "abi": [
    {
      "inputs": [
        {
          "internalType": "bytes32[]",
          "name": "_proposalNames",
          "type": "bytes32[]"
        },
        {
          "internalType": "uint256",
          "name": "_maxVotes",
          "type": "uint256"
        },
        {
          "internalType": "bool",
          "name": "_allowDelegation",
          "type": "bool"
        },
        {
          "internalType": "address",
          "name": "_owner",
          "type": "address"
        }
      ],
      "stateMutability": "nonpayable",
      "type": "constructor"
    },
    {
      "anonymous": false,
      "inputs": [
        {
          "indexed": true,
          "internalType": "address",
          "name": "admin",
          "type": "address"
        }
      ],
      "name": "AdminAdded",
      "type": "event"
    },
    {
      "anonymous": false,
      "inputs": [
        {
          "indexed": true,
          "internalType": "address",
          "name": "admin",
          "type": "address"
        }
      ],
      "name": "AdminRemoved",
      "type": "event"
    },
    {
      "anonymous": false,
      "inputs": [
        {
          "indexed": true,
          "internalType": "address",
          "name": "from",
          "type": "address"
        },
        {
          "indexed": true,
          "internalType": "address",
          "name": "to",
          "type": "address"
        }
      ],
      "name": "DelegatedVote",
      "type": "event"
    },
    {
      "anonymous": false,
      "inputs": [
        {
          "indexed": true,
          "internalType": "address",
          "name": "voter",
          "type": "address"
        },
        {
          "indexed": false,
          "internalType": "uint256",
          "name": "proposalId",
          "type": "uint256"
        }
      ],
      "name": "VoteCast",
      "type": "event"
    },
    {
      "anonymous": false,
      "inputs": [
        {
          "indexed": true,
          "internalType": "address",
          "name": "voter",
          "type": "address"
        }
      ],
      "name": "VoterWhitelisted",
      "type": "event"
    },
    {
      "anonymous": false,
      "inputs": [
        {
          "indexed": false,
          "internalType": "bool",
          "name": "isOpen",
          "type": "bool"
        }
      ],
      "name": "VotingStateChanged",
      "type": "event"
    },
    {
      "inputs": [
        {
          "internalType": "address",
          "name": "_admin",
          "type": "address"
        }
      ],
      "name": "addAdmin",
      "outputs": [],
      "stateMutability": "nonpayable",
      "type": "function"
    },
    {
      "inputs": [
        {
          "internalType": "address",
          "name": "",
          "type": "address"
        }
      ],
      "name": "admins",
      "outputs": [
        {
          "internalType": "bool",
          "name": "",
          "type": "bool"
        }
      ],
      "stateMutability": "view",
      "type": "function"
    },
    {
      "inputs": [],
      "name": "allowDelegation",
      "outputs": [
        {
          "internalType": "bool",
          "name": "",
          "type": "bool"
        }
      ],
      "stateMutability": "view",
      "type": "function"
    },
    {
      "inputs": [
        {
          "internalType": "address",
          "name": "_to",
          "type": "address"
        }
      ],
      "name": "delegate",
      "outputs": [],
      "stateMutability": "nonpayable",
      "type": "function"
    },
    {
      "inputs": [],
      "name": "getBallotStatus",
      "outputs": [
        {
          "internalType": "uint256",
          "name": "totalWhitelistedVoters",
          "type": "uint256"
        },
        {
          "internalType": "uint256",
          "name": "totalVotesCast",
          "type": "uint256"
        },
        {
          "internalType": "bool",
          "name": "isVotingOpen",
          "type": "bool"
        },
        {
          "internalType": "bool",
          "name": "isDelegationAllowed",
          "type": "bool"
        },
        {
          "internalType": "uint256",
          "name": "maxAllowedVotes",
          "type": "uint256"
        }
      ],
      "stateMutability": "view",
      "type": "function"
    },
    {
      "inputs": [],
      "name": "getProposalCount",
      "outputs": [
        {
          "internalType": "uint256",
          "name": "",
          "type": "uint256"
        }
      ],
      "stateMutability": "view",
      "type": "function"
    },
    {
      "inputs": [
        {
          "internalType": "address",
          "name": "_address",
          "type": "address"
        }
      ],
      "name": "isAdmin",
      "outputs": [
        {
          "internalType": "bool",
          "name": "",
          "type": "bool"
        }
      ],
      "stateMutability": "view",
      "type": "function"
    },
    {
      "inputs": [],
      "name": "maxVotes",
      "outputs": [
        {
          "internalType": "uint256",
          "name": "",
          "type": "uint256"
        }
      ],
      "stateMutability": "view",
      "type": "function"
    },
    {
      "inputs": [],
      "name": "owner",
      "outputs": [
        {
          "internalType": "address",
          "name": "",
          "type": "address"
        }
      ],
      "stateMutability": "view",
      "type": "function"
    },
    {
      "inputs": [
        {
          "internalType": "uint256",
          "name": "",
          "type": "uint256"
        }
      ],
      "name": "proposals",
      "outputs": [
        {
          "internalType": "bytes32",
          "name": "name",
          "type": "bytes32"
        },
        {
          "internalType": "uint256",
          "name": "voteCount",
          "type": "uint256"
        }
      ],
      "stateMutability": "view",
      "type": "function"
    },
    {
      "inputs": [
        {
          "internalType": "address",
          "name": "_admin",
          "type": "address"
        }
      ],
      "name": "removeAdmin",
      "outputs": [],
      "stateMutability": "nonpayable",
      "type": "function"
    },
    {
      "inputs": [
        {
          "internalType": "bool",
          "name": "_isOpen",
          "type": "bool"
        }
      ],
      "name": "setVotingState",
      "outputs": [],
      "stateMutability": "nonpayable",
      "type": "function"
    },
    {
      "inputs": [],
      "name": "totalVoters",
      "outputs": [
        {
          "internalType": "uint256",
          "name": "",
          "type": "uint256"
        }
      ],
      "stateMutability": "view",
      "type": "function"
    },
    {
      "inputs": [
        {
          "internalType": "uint256",
          "name": "_proposalId",
          "type": "uint256"
        }
      ],
      "name": "vote",
      "outputs": [],
      "stateMutability": "nonpayable",
      "type": "function"
    },
    {
      "inputs": [
        {
          "internalType": "address",
          "name": "",
          "type": "address"
        }
      ],
      "name": "voters",
      "outputs": [
        {
          "internalType": "bool",
          "name": "hasVoted",
          "type": "bool"
        },
        {
          "internalType": "bool",
          "name": "isWhitelisted",
          "type": "bool"
        },
        {
          "internalType": "uint256",
          "name": "votedProposalId",
          "type": "uint256"
        },
        {
          "internalType": "address",
          "name": "delegate",
          "type": "address"
        },
        {
          "internalType": "uint256",
          "name": "weight",
          "type": "uint256"
        }
      ],
      "stateMutability": "view",
      "type": "function"
    },
    {
      "inputs": [],
      "name": "votesCount",
      "outputs": [
        {
          "internalType": "uint256",
          "name": "",
          "type": "uint256"
        }
      ],
      "stateMutability": "view",
      "type": "function"
    },
    {
      "inputs": [],
      "name": "votingOpen",
      "outputs": [
        {
          "internalType": "bool",
          "name": "",
          "type": "bool"
        }
      ],
      "stateMutability": "view",
      "type": "function"
    },
    {
      "inputs": [
        {
          "internalType": "address",
          "name": "_voter",
          "type": "address"
        }
      ],
      "name": "whitelistVoter",
      "outputs": [],
      "stateMutability": "nonpayable",
      "type": "function"
    },
    {
      "inputs": [
        {
          "internalType": "address[]",
          "name": "_voters",
          "type": "address[]"
        }
      ],
      "name": "whitelistVoters",
      "outputs": [],
      "stateMutability": "nonpayable",
      "type": "function"
    },
    {
      "inputs": [],
      "name": "winnerName",
      "outputs": [
        {
          "internalType": "bytes32",
          "name": "winnerName_",
          "type": "bytes32"
        }
      ],
      "stateMutability": "view",
      "type": "function"
    },
    {
      "inputs": [],
      "name": "winningProposal",
      "outputs": [
        {
          "internalType": "uint256",
          "name": "winningProposalId",
          "type": "uint256"
        }
      ],
      "stateMutability": "view",
      "type": "function"
    }
  ],
  "bytecode": "0x608060405234801561001057600080fd5b50604051612e3e380380612e3e83398181016040528101906100329190610493565b6000845111610076576040517f08c379a000000000000000000000000000000000000000000000000000000000815260040161006d90610573565b60405180910390fd5b6005845111156100bb576040517f08c379a00000000000000000000000000000000000000000000000000000000081526004016100b2906105df565b60405180910390fd5b80600260006101000a81548173ffffffffffffffffffffffffffffffffffffffff021916908373ffffffffffffffffffffffffffffffffffffffff1602179055506001600360008373ffffffffffffffffffffffffffffffffffffffff1673ffffffffffffffffffffffffffffffffffffffff16815260200190815260200160002060006101000a81548160ff0219169083151502179055506001600660006101000a81548160ff02191690831515021790555081600660016101000a81548160ff0219169083151502179055508260078190555060005b845181101561021a57600060405180604001604052808784815181106101bc576101bb6105ff565b5b6020026020010151815260200160008152509080600181540180825580915050600190039060005260206000209060020201600090919091909150600082015181600001556020820151816001015550508080600101915050610193565b505050505061062e565b6000604051905090565b600080fd5b600080fd5b600080fd5b6000601f19601f8301169050919050565b7f4e487b7100000000000000000000000000000000000000000000000000000000600052604160045260246000fd5b6102868261023d565b810181811067ffffffffffffffff821117156102a5576102a461024e565b5b80604052505050565b60006102b8610224565b90506102c4828261027d565b919050565b600067ffffffffffffffff8211156102e4576102e361024e565b5b602082029050602081019050919050565b600080fd5b6000819050919050565b61030d816102fa565b811461031857600080fd5b50565b60008151905061032a81610304565b92915050565b600061034361033e846102c9565b6102ae565b90508083825260208201905060208402830185811115610366576103656102f5565b5b835b8181101561038f578061037b888261031b565b845260208401935050602081019050610368565b5050509392505050565b600082601f8301126103ae576103ad610238565b5b81516103be848260208601610330565b91505092915050565b6000819050919050565b6103da816103c7565b81146103e557600080fd5b50565b6000815190506103f7816103d1565b92915050565b60008115159050919050565b610412816103fd565b811461041d57600080fd5b50565b60008151905061042f81610409565b92915050565b600073ffffffffffffffffffffffffffffffffffffffff82169050919050565b600061046082610435565b9050919050565b61047081610455565b811461047b57600080fd5b50565b60008151905061048d81610467565b92915050565b600080600080608085870312156104ad576104ac61022e565b5b600085015167ffffffffffffffff8111156104cb576104ca610233565b5b6104d787828801610399565b94505060206104e8878288016103e8565b93505060406104f987828801610420565b925050606061050a8782880161047e565b91505092959194509250565b600082825260208201905092915050565b7f4d7573742068617665206174206c65617374206f6e652070726f706f73616c00600082015250565b600061055d601f83610516565b915061056882610527565b602082019050919050565b6000602082019050818103600083015261058c81610550565b9050919050565b7f4d6178696d756d20352070726f706f73616c7320616c6c6f7765640000000000600082015250565b60006105c9601b83610516565b91506105d482610593565b602082019050919050565b600060208201905081810360008301526105f8816105bc565b9050919050565b7f4e487b7100000000000000000000000000000000000000000000000000000000600052603260045260246000fd5b6128018061063d6000396000f3fe608060405234801561001057600080fd5b50600436106101375760003560e01c80638778b27d116100b8578063bddf1ce91161007c578063bddf1ce914610347578063bfd41f3b14610363578063c08cc02d1461037f578063cf68fb251461039d578063d330715e146103bb578063e2ba53f0146103d757610137565b80638778b27d146102975780638da5cb5b146102b5578063a10cfae5146102d3578063a3ec138d146102f5578063a95824b41461032957610137565b80635c19a95c116100ff5780635c19a95c146102055780635f5300ff14610221578063609ff1bd1461023f578063704802751461025d578063777c3acf1461027957610137565b80630121b93f1461013c578063013cf08b146101585780631785f53c1461018957806324d7806c146101a5578063429b62e5146101d5575b600080fd5b61015660048036038101906101519190611c5e565b6103f5565b005b610172600480360381019061016d9190611c5e565b610732565b604051610180929190611cb3565b60405180910390f35b6101a3600480360381019061019e9190611d3a565b610766565b005b6101bf60048036038101906101ba9190611d3a565b6109b0565b6040516101cc9190611d82565b60405180910390f35b6101ef60048036038101906101ea9190611d3a565b610a5e565b6040516101fc9190611d82565b60405180910390f35b61021f600480360381019061021a9190611d3a565b610a7e565b005b61022961119b565b6040516102369190611d9d565b60405180910390f35b6102476111a1565b6040516102549190611d9d565b60405180910390f35b61027760048036038101906102729190611d3a565b611223565b005b6102816113de565b60405161028e9190611d9d565b60405180910390f35b61029f6113e4565b6040516102ac9190611d9d565b60405180910390f35b6102bd6113ea565b6040516102ca9190611dc7565b60405180910390f35b6102db611410565b6040516102ec959493929190611de2565b60405180910390f35b61030f600480360381019061030a9190611d3a565b611452565b604051610320959493929190611e35565b60405180910390f35b6103316114c2565b60405161033e9190611d82565b60405180910390f35b610361600480360381019061035c9190611d3a565b6114d5565b005b61037d60048036038101906103789190611eb4565b61178e565b005b6103876118c6565b6040516103949190611d9d565b60405180910390f35b6103a56118d2565b6040516103b29190611d82565b60405180910390f35b6103d560048036038101906103d09190611f46565b6118e5565b005b6103df611beb565b6040516103ec9190611f93565b60405180910390f35b600660009054906101000a900460ff16610444576040517f08c379a000000000000000000000000000000000000000000000000000000000815260040161043b9061200b565b60405180910390fd5b600160003373ffffffffffffffffffffffffffffffffffffffff1673ffffffffffffffffffffffffffffffffffffffff16815260200190815260200160002060000160019054906101000a900460ff166104d3576040517f08c379a00000000000000000000000000000000000000000000000000000000081526004016104ca90612077565b60405180910390fd5b600160003373ffffffffffffffffffffffffffffffffffffffff1673ffffffffffffffffffffffffffffffffffffffff16815260200190815260200160002060000160009054906101000a900460ff1615610563576040517f08c379a000000000000000000000000000000000000000000000000000000000815260040161055a906120e3565b60405180910390fd5b60008054905081106105aa576040517f08c379a00000000000000000000000000000000000000000000000000000000081526004016105a19061214f565b60405180910390fd5b60018060003373ffffffffffffffffffffffffffffffffffffffff1673ffffffffffffffffffffffffffffffffffffffff16815260200190815260200160002060000160006101000a81548160ff02191690831515021790555080600160003373ffffffffffffffffffffffffffffffffffffffff1673ffffffffffffffffffffffffffffffffffffffff16815260200190815260200160002060010181905550600160003373ffffffffffffffffffffffffffffffffffffffff1673ffffffffffffffffffffffffffffffffffffffff16815260200190815260200160002060030154600082815481106106a2576106a161216f565b5b906000526020600020906002020160010160008282546106c291906121cd565b92505081905550600560008154809291906106dc90612201565b91905055503373ffffffffffffffffffffffffffffffffffffffff167fa36cc2bebb74db33e9f88110a07ef56e1b31b24b4c4f51b54b1664266e29f45b826040516107279190611d9d565b60405180910390a250565b6000818154811061074257600080fd5b90600052602060002090600202016000915090508060000154908060010154905082565b600260009054906101000a900473ffffffffffffffffffffffffffffffffffffffff1673ffffffffffffffffffffffffffffffffffffffff163373ffffffffffffffffffffffffffffffffffffffff16146107f6576040517f08c379a00000000000000000000000000000000000000000000000000000000081526004016107ed90612295565b60405180910390fd5b600260009054906101000a900473ffffffffffffffffffffffffffffffffffffffff1673ffffffffffffffffffffffffffffffffffffffff168173ffffffffffffffffffffffffffffffffffffffff1603610886576040517f08c379a000000000000000000000000000000000000000000000000000000000815260040161087d90612327565b60405180910390fd5b600360008273ffffffffffffffffffffffffffffffffffffffff1673ffffffffffffffffffffffffffffffffffffffff16815260200190815260200160002060009054906101000a900460ff16610912576040517f08c379a000000000000000000000000000000000000000000000000000000000815260040161090990612393565b60405180910390fd5b6000600360008373ffffffffffffffffffffffffffffffffffffffff1673ffffffffffffffffffffffffffffffffffffffff16815260200190815260200160002060006101000a81548160ff0219169083151502179055508073ffffffffffffffffffffffffffffffffffffffff167fa3b62bc36326052d97ea62d63c3d60308ed4c3ea8ac079dd8499f1e9c4f80c0f60405160405180910390a250565b6000600360008373ffffffffffffffffffffffffffffffffffffffff1673ffffffffffffffffffffffffffffffffffffffff16815260200190815260200160002060009054906101000a900460ff1680610a575750600260009054906101000a900473ffffffffffffffffffffffffffffffffffffffff1673ffffffffffffffffffffffffffffffffffffffff168273ffffffffffffffffffffffffffffffffffffffff16145b9050919050565b60036020528060005260406000206000915054906101000a900460ff1681565b600660009054906101000a900460ff16610acd576040517f08c379a0000000000000000000000000000000000000000000000000000000008152600401610ac49061200b565b60405180910390fd5b600660019054906101000a900460ff16610b1c576040517f08c379a0000000000000000000000000000000000000000000000000000000008152600401610b1390612425565b60405180910390fd5b600160003373ffffffffffffffffffffffffffffffffffffffff1673ffffffffffffffffffffffffffffffffffffffff16815260200190815260200160002060000160019054906101000a900460ff16610bab576040517f08c379a0000000000000000000000000000000000000000000000000000000008152600401610ba290612077565b60405180910390fd5b600160003373ffffffffffffffffffffffffffffffffffffffff1673ffffffffffffffffffffffffffffffffffffffff16815260200190815260200160002060000160009054906101000a900460ff1615610c3b576040517f08c379a0000000000000000000000000000000000000000000000000000000008152600401610c32906120e3565b60405180910390fd5b3373ffffffffffffffffffffffffffffffffffffffff168173ffffffffffffffffffffffffffffffffffffffff1603610ca9576040517f08c379a0000000000000000000000000000000000000000000000000000000008152600401610ca090612491565b60405180910390fd5b600160008273ffffffffffffffffffffffffffffffffffffffff1673ffffffffffffffffffffffffffffffffffffffff16815260200190815260200160002060000160019054906101000a900460ff16610d38576040517f08c379a0000000000000000000000000000000000000000000000000000000008152600401610d2f906124fd565b60405180910390fd5b60008190505b600073ffffffffffffffffffffffffffffffffffffffff16600160008373ffffffffffffffffffffffffffffffffffffffff1673ffffffffffffffffffffffffffffffffffffffff16815260200190815260200160002060020160009054906101000a900473ffffffffffffffffffffffffffffffffffffffff1673ffffffffffffffffffffffffffffffffffffffff1614610eac57600160008273ffffffffffffffffffffffffffffffffffffffff1673ffffffffffffffffffffffffffffffffffffffff16815260200190815260200160002060020160009054906101000a900473ffffffffffffffffffffffffffffffffffffffff1690503373ffffffffffffffffffffffffffffffffffffffff168173ffffffffffffffffffffffffffffffffffffffff1603610ea7576040517f08c379a0000000000000000000000000000000000000000000000000000000008152600401610e9e90612569565b60405180910390fd5b610d3e565b80600160003373ffffffffffffffffffffffffffffffffffffffff1673ffffffffffffffffffffffffffffffffffffffff16815260200190815260200160002060020160006101000a81548173ffffffffffffffffffffffffffffffffffffffff021916908373ffffffffffffffffffffffffffffffffffffffff16021790555060018060003373ffffffffffffffffffffffffffffffffffffffff1673ffffffffffffffffffffffffffffffffffffffff16815260200190815260200160002060000160006101000a81548160ff021916908315150217905550600160008273ffffffffffffffffffffffffffffffffffffffff1673ffffffffffffffffffffffffffffffffffffffff16815260200190815260200160002060000160009054906101000a900460ff16156110a157600160003373ffffffffffffffffffffffffffffffffffffffff1673ffffffffffffffffffffffffffffffffffffffff168152602001908152602001600020600301546000600160008473ffffffffffffffffffffffffffffffffffffffff1673ffffffffffffffffffffffffffffffffffffffff16815260200190815260200160002060010154815481106110755761107461216f565b5b9060005260206000209060020201600101600082825461109591906121cd565b9250508190555061113d565b600160003373ffffffffffffffffffffffffffffffffffffffff1673ffffffffffffffffffffffffffffffffffffffff16815260200190815260200160002060030154600160008373ffffffffffffffffffffffffffffffffffffffff1673ffffffffffffffffffffffffffffffffffffffff168152602001908152602001600020600301600082825461113591906121cd565b925050819055505b8073ffffffffffffffffffffffffffffffffffffffff163373ffffffffffffffffffffffffffffffffffffffff167f63865a234f7fdfbbb95e275562773a2bb9e4bcdde12e942e55853115a43842bf60405160405180910390a35050565b60045481565b6000806000905060005b60008054905081101561121e5781600082815481106111cd576111cc61216f565b5b906000526020600020906002020160010154111561121157600081815481106111f9576111f861216f565b5b90600052602060002090600202016001015491508092505b80806001019150506111ab565b505090565b600260009054906101000a900473ffffffffffffffffffffffffffffffffffffffff1673ffffffffffffffffffffffffffffffffffffffff163373ffffffffffffffffffffffffffffffffffffffff16146112b3576040517f08c379a00000000000000000000000000000000000000000000000000000000081526004016112aa906125d5565b60405180910390fd5b600360008273ffffffffffffffffffffffffffffffffffffffff1673ffffffffffffffffffffffffffffffffffffffff16815260200190815260200160002060009054906101000a900460ff1615611340576040517f08c379a000000000000000000000000000000000000000000000000000000000815260040161133790612641565b60405180910390fd5b6001600360008373ffffffffffffffffffffffffffffffffffffffff1673ffffffffffffffffffffffffffffffffffffffff16815260200190815260200160002060006101000a81548160ff0219169083151502179055508073ffffffffffffffffffffffffffffffffffffffff167f44d6d25963f097ad14f29f06854a01f575648a1ef82f30e562ccd3889717e33960405160405180910390a250565b60075481565b60055481565b600260009054906101000a900473ffffffffffffffffffffffffffffffffffffffff1681565b6000806000806000600454600554600660009054906101000a900460ff16600660019054906101000a900460ff16600754945094509450945094509091929394565b60016020528060005260406000206000915090508060000160009054906101000a900460ff16908060000160019054906101000a900460ff16908060010154908060020160009054906101000a900473ffffffffffffffffffffffffffffffffffffffff16908060030154905085565b600660009054906101000a900460ff1681565b600360003373ffffffffffffffffffffffffffffffffffffffff1673ffffffffffffffffffffffffffffffffffffffff16815260200190815260200160002060009054906101000a900460ff168061157a5750600260009054906101000a900473ffffffffffffffffffffffffffffffffffffffff1673ffffffffffffffffffffffffffffffffffffffff163373ffffffffffffffffffffffffffffffffffffffff16145b6115b9576040517f08c379a00000000000000000000000000000000000000000000000000000000081526004016115b0906126d3565b60405180910390fd5b600160008273ffffffffffffffffffffffffffffffffffffffff1673ffffffffffffffffffffffffffffffffffffffff16815260200190815260200160002060000160019054906101000a900460ff1615611649576040517f08c379a00000000000000000000000000000000000000000000000000000000081526004016116409061273f565b60405180910390fd5b6007546004541061168f576040517f08c379a0000000000000000000000000000000000000000000000000000000008152600401611686906127ab565b60405180910390fd5b60018060008373ffffffffffffffffffffffffffffffffffffffff1673ffffffffffffffffffffffffffffffffffffffff16815260200190815260200160002060000160016101000a81548160ff02191690831515021790555060018060008373ffffffffffffffffffffffffffffffffffffffff1673ffffffffffffffffffffffffffffffffffffffff168152602001908152602001600020600301819055506004600081548092919061174390612201565b91905055508073ffffffffffffffffffffffffffffffffffffffff167f5cb979827581f5a2d6accf830511f42bc79705dde54d001643bb14fea7f75d5860405160405180910390a250565b600360003373ffffffffffffffffffffffffffffffffffffffff1673ffffffffffffffffffffffffffffffffffffffff16815260200190815260200160002060009054906101000a900460ff16806118335750600260009054906101000a900473ffffffffffffffffffffffffffffffffffffffff1673ffffffffffffffffffffffffffffffffffffffff163373ffffffffffffffffffffffffffffffffffffffff16145b611872576040517f08c379a0000000000000000000000000000000000000000000000000000000008152600401611869906126d3565b60405180910390fd5b80600660006101000a81548160ff0219169083151502179055507f4f368b73aecef9e323a0e143f8b129ff39e553cfb26c2cc6ac111a016c0ea4e7816040516118bb9190611d82565b60405180910390a150565b60008080549050905090565b600660019054906101000a900460ff1681565b600360003373ffffffffffffffffffffffffffffffffffffffff1673ffffffffffffffffffffffffffffffffffffffff16815260200190815260200160002060009054906101000a900460ff168061198a5750600260009054906101000a900473ffffffffffffffffffffffffffffffffffffffff1673ffffffffffffffffffffffffffffffffffffffff163373ffffffffffffffffffffffffffffffffffffffff16145b6119c9576040517f08c379a00000000000000000000000000000000000000000000000000000000081526004016119c0906126d3565b60405180910390fd5b60005b82829050811080156119e15750600754600454105b15611be657600160008484848181106119fd576119fc61216f565b5b9050602002016020810190611a129190611d3a565b73ffffffffffffffffffffffffffffffffffffffff1673ffffffffffffffffffffffffffffffffffffffff16815260200190815260200160002060000160019054906101000a900460ff16611bd3576001806000858585818110611a7957611a7861216f565b5b9050602002016020810190611a8e9190611d3a565b73ffffffffffffffffffffffffffffffffffffffff1673ffffffffffffffffffffffffffffffffffffffff16815260200190815260200160002060000160016101000a81548160ff0219169083151502179055506001806000858585818110611afa57611af961216f565b5b9050602002016020810190611b0f9190611d3a565b73ffffffffffffffffffffffffffffffffffffffff1673ffffffffffffffffffffffffffffffffffffffff1681526020019081526020016000206003018190555060046000815480929190611b6390612201565b9190505550828282818110611b7b57611b7a61216f565b5b9050602002016020810190611b909190611d3a565b73ffffffffffffffffffffffffffffffffffffffff167f5cb979827581f5a2d6accf830511f42bc79705dde54d001643bb14fea7f75d5860405160405180910390a25b8080611bde90612201565b9150506119cc565b505050565b600080611bf66111a1565b81548110611c0757611c0661216f565b5b906000526020600020906002020160000154905090565b600080fd5b600080fd5b6000819050919050565b611c3b81611c28565b8114611c4657600080fd5b50565b600081359050611c5881611c32565b92915050565b600060208284031215611c7457611c73611c1e565b5b6000611c8284828501611c49565b91505092915050565b6000819050919050565b611c9e81611c8b565b82525050565b611cad81611c28565b82525050565b6000604082019050611cc86000830185611c95565b611cd56020830184611ca4565b9392505050565b600073ffffffffffffffffffffffffffffffffffffffff82169050919050565b6000611d0782611cdc565b9050919050565b611d1781611cfc565b8114611d2257600080fd5b50565b600081359050611d3481611d0e565b92915050565b600060208284031215611d5057611d4f611c1e565b5b6000611d5e84828501611d25565b91505092915050565b60008115159050919050565b611d7c81611d67565b82525050565b6000602082019050611d976000830184611d73565b92915050565b6000602082019050611db26000830184611ca4565b92915050565b611dc181611cfc565b82525050565b6000602082019050611ddc6000830184611db8565b92915050565b600060a082019050611df76000830188611ca4565b611e046020830187611ca4565b611e116040830186611d73565b611e1e6060830185611d73565b611e2b6080830184611ca4565b9695505050505050565b600060a082019050611e4a6000830188611d73565b611e576020830187611d73565b611e646040830186611ca4565b611e716060830185611db8565b611e7e6080830184611ca4565b9695505050505050565b611e9181611d67565b8114611e9c57600080fd5b50565b600081359050611eae81611e88565b92915050565b600060208284031215611eca57611ec9611c1e565b5b6000611ed884828501611e9f565b91505092915050565b600080fd5b600080fd5b600080fd5b60008083601f840112611f0657611f05611ee1565b5b8235905067ffffffffffffffff811115611f2357611f22611ee6565b5b602083019150836020820283011115611f3f57611f3e611eeb565b5b9250929050565b60008060208385031215611f5d57611f5c611c1e565b5b600083013567ffffffffffffffff811115611f7b57611f7a611c23565b5b611f8785828601611ef0565b92509250509250929050565b6000602082019050611fa86000830184611c95565b92915050565b600082825260208201905092915050565b7f566f74696e67206973206e6f74206f70656e0000000000000000000000000000600082015250565b6000611ff5601283611fae565b915061200082611fbf565b602082019050919050565b6000602082019050818103600083015261202481611fe8565b9050919050565b7f4e6f742077686974656c697374656420746f20766f7465000000000000000000600082015250565b6000612061601783611fae565b915061206c8261202b565b602082019050919050565b6000602082019050818103600083015261209081612054565b9050919050565b7f416c726561647920766f74656400000000000000000000000000000000000000600082015250565b60006120cd600d83611fae565b91506120d882612097565b602082019050919050565b600060208201905081810360008301526120fc816120c0565b9050919050565b7f496e76616c69642070726f706f73616c00000000000000000000000000000000600082015250565b6000612139601083611fae565b915061214482612103565b602082019050919050565b600060208201905081810360008301526121688161212c565b9050919050565b7f4e487b7100000000000000000000000000000000000000000000000000000000600052603260045260246000fd5b7f4e487b7100000000000000000000000000000000000000000000000000000000600052601160045260246000fd5b60006121d882611c28565b91506121e383611c28565b92508282019050808211156121fb576121fa61219e565b5b92915050565b600061220c82611c28565b91507fffffffffffffffffffffffffffffffffffffffffffffffffffffffffffffffff820361223e5761223d61219e565b5b600182019050919050565b7f4f6e6c79206f776e65722063616e2072656d6f76652061646d696e7300000000600082015250565b600061227f601c83611fae565b915061228a82612249565b602082019050919050565b600060208201905081810360008301526122ae81612272565b9050919050565b7f43616e6e6f742072656d6f7665206f776e65722066726f6d2061646d696e207260008201527f6f6c650000000000000000000000000000000000000000000000000000000000602082015250565b6000612311602383611fae565b915061231c826122b5565b604082019050919050565b6000602082019050818103600083015261234081612304565b9050919050565b7f41646472657373206973206e6f7420616e2061646d696e000000000000000000600082015250565b600061237d601783611fae565b915061238882612347565b602082019050919050565b600060208201905081810360008301526123ac81612370565b9050919050565b7f44656c65676174696f6e206e6f7420616c6c6f77656420696e2074686973206260008201527f616c6c6f74000000000000000000000000000000000000000000000000000000602082015250565b600061240f602583611fae565b915061241a826123b3565b604082019050919050565b6000602082019050818103600083015261243e81612402565b9050919050565b7f43616e6e6f742064656c656761746520746f20796f757273656c660000000000600082015250565b600061247b601b83611fae565b915061248682612445565b602082019050919050565b600060208201905081810360008301526124aa8161246e565b9050919050565b7f44656c6567617465206e6f742077686974656c69737465640000000000000000600082015250565b60006124e7601883611fae565b91506124f2826124b1565b602082019050919050565b60006020820190508181036000830152612516816124da565b9050919050565b7f4c6f6f7020696e2064656c65676174696f6e2064657465637465640000000000600082015250565b6000612553601b83611fae565b915061255e8261251d565b602082019050919050565b6000602082019050818103600083015261258281612546565b9050919050565b7f4f6e6c79206f776e65722063616e206164642061646d696e7300000000000000600082015250565b60006125bf601983611fae565b91506125ca82612589565b602082019050919050565b600060208201905081810360008301526125ee816125b2565b9050919050565b7f4164647265737320697320616c726561647920616e2061646d696e0000000000600082015250565b600061262b601b83611fae565b9150612636826125f5565b602082019050919050565b6000602082019050818103600083015261265a8161261e565b9050919050565b7f4f6e6c792061646d696e2063616e2063616c6c20746869732066756e6374696f60008201527f6e00000000000000000000000000000000000000000000000000000000000000602082015250565b60006126bd602183611fae565b91506126c882612661565b604082019050919050565b600060208201905081810360008301526126ec816126b0565b9050919050565b7f566f74657220616c72656164792077686974656c697374656400000000000000600082015250565b6000612729601983611fae565b9150612734826126f3565b602082019050919050565b600060208201905081810360008301526127588161271c565b9050919050565b7f4d6178696d756d206e756d626572206f6620766f746572732072656163686564600082015250565b6000612795602083611fae565b91506127a08261275f565b602082019050919050565b600060208201905081810360008301526127c481612788565b905091905056fea264697066735822122020c972d4d55b2d921828996846163eab8547ce13c4b995c73d3e7b8f33bca4d964736f6c634300081c0033",
  "linkReferences": {},
  "deployedLinkReferences": {}
}